{
  "_format": "hh-sol-artifact-1",
  "contractName": "VicProposal",
  "sourceName": "contracts/VicProposal.sol",
  "abi": [
    {
      "inputs": [
        {
          "internalType": "address",
          "name": "_token",
          "type": "address"
        }
      ],
      "stateMutability": "nonpayable",
      "type": "constructor"
    },
    {
      "anonymous": false,
      "inputs": [
        {
          "indexed": true,
          "internalType": "address",
          "name": "previousOwner",
          "type": "address"
        },
        {
          "indexed": true,
          "internalType": "address",
          "name": "newOwner",
          "type": "address"
        }
      ],
      "name": "OwnershipTransferred",
      "type": "event"
    },
    {
      "anonymous": false,
      "inputs": [
        {
          "indexed": false,
          "internalType": "uint256",
          "name": "proposalId",
          "type": "uint256"
        }
      ],
      "name": "ProposalApproved",
      "type": "event"
    },
    {
      "anonymous": false,
      "inputs": [
        {
          "indexed": false,
          "internalType": "uint256",
          "name": "proposalId",
          "type": "uint256"
        },
        {
          "indexed": false,
          "internalType": "address",
          "name": "creator",
          "type": "address"
        },
        {
          "indexed": false,
          "internalType": "uint256",
          "name": "price",
          "type": "uint256"
        },
        {
          "indexed": false,
          "internalType": "uint256",
          "name": "startTime",
          "type": "uint256"
        },
        {
          "indexed": false,
          "internalType": "uint256",
          "name": "endTime",
          "type": "uint256"
        }
      ],
      "name": "ProposalCreated",
      "type": "event"
    },
    {
      "anonymous": false,
      "inputs": [
        {
          "indexed": false,
          "internalType": "uint256",
          "name": "proposalId",
          "type": "uint256"
        }
      ],
      "name": "ProposalRejected",
      "type": "event"
    },
    {
      "inputs": [],
      "name": "DAO",
      "outputs": [
        {
          "internalType": "address",
          "name": "",
          "type": "address"
        }
      ],
      "stateMutability": "view",
      "type": "function"
    },
    {
      "inputs": [],
      "name": "MAX_VOTE_DURATION",
      "outputs": [
        {
          "internalType": "uint256",
          "name": "",
          "type": "uint256"
        }
      ],
      "stateMutability": "view",
      "type": "function"
    },
    {
      "inputs": [],
      "name": "MAX_VOTE_PERCENTAGE",
      "outputs": [
        {
          "internalType": "uint256",
          "name": "",
          "type": "uint256"
        }
      ],
      "stateMutability": "view",
      "type": "function"
    },
    {
      "inputs": [],
      "name": "MIN_VOTE_DURATION",
      "outputs": [
        {
          "internalType": "uint256",
          "name": "",
          "type": "uint256"
        }
      ],
      "stateMutability": "view",
      "type": "function"
    },
    {
      "inputs": [],
      "name": "MIN_VOTE_PERCENTAGE",
      "outputs": [
        {
          "internalType": "uint256",
          "name": "",
          "type": "uint256"
        }
      ],
      "stateMutability": "view",
      "type": "function"
    },
    {
      "inputs": [
        {
          "internalType": "uint256",
          "name": "_proposalId",
          "type": "uint256"
        }
      ],
      "name": "clearHasVoted",
      "outputs": [],
      "stateMutability": "nonpayable",
      "type": "function"
    },
    {
      "inputs": [
        {
          "internalType": "uint256",
          "name": "_duration",
          "type": "uint256"
        },
        {
          "internalType": "address",
          "name": "_nftAddress",
          "type": "address"
        },
        {
          "internalType": "uint256",
          "name": "_nftId",
          "type": "uint256"
        },
        {
          "internalType": "uint256",
          "name": "_price",
          "type": "uint256"
        },
        {
          "internalType": "uint256",
          "name": "_repayTime",
          "type": "uint256"
        }
      ],
      "name": "createProposal",
      "outputs": [
        {
          "internalType": "uint256",
          "name": "",
          "type": "uint256"
        }
      ],
      "stateMutability": "nonpayable",
      "type": "function"
    },
    {
      "inputs": [],
      "name": "getProposalsLength",
      "outputs": [
        {
          "internalType": "uint256",
          "name": "",
          "type": "uint256"
        }
      ],
      "stateMutability": "view",
      "type": "function"
    },
    {
      "inputs": [
        {
          "internalType": "address",
          "name": "",
          "type": "address"
        },
        {
          "internalType": "uint256",
          "name": "",
          "type": "uint256"
        }
      ],
      "name": "hasVoted",
      "outputs": [
        {
          "internalType": "bool",
          "name": "",
          "type": "bool"
        }
      ],
      "stateMutability": "view",
      "type": "function"
    },
    {
      "inputs": [],
      "name": "owner",
      "outputs": [
        {
          "internalType": "address",
          "name": "",
          "type": "address"
        }
      ],
      "stateMutability": "view",
      "type": "function"
    },
    {
      "inputs": [
        {
          "internalType": "uint256",
          "name": "",
          "type": "uint256"
        }
      ],
      "name": "proposals",
      "outputs": [
        {
          "internalType": "address",
          "name": "creator",
          "type": "address"
        },
        {
          "internalType": "address",
          "name": "nftAddress",
          "type": "address"
        },
        {
          "internalType": "uint256",
          "name": "nftId",
          "type": "uint256"
        },
        {
          "internalType": "uint256",
          "name": "price",
          "type": "uint256"
        },
        {
          "internalType": "uint256",
          "name": "startTime",
          "type": "uint256"
        },
        {
          "internalType": "uint256",
          "name": "endTime",
          "type": "uint256"
        },
        {
          "internalType": "uint256",
          "name": "totalAgreeVotes",
          "type": "uint256"
        },
        {
          "internalType": "uint256",
          "name": "totalDisagreeVotes",
          "type": "uint256"
        },
        {
          "internalType": "uint256",
          "name": "repayTime",
          "type": "uint256"
        },
        {
          "internalType": "enum VicProposal.ProposalStatus",
          "name": "status",
          "type": "uint8"
        }
      ],
      "stateMutability": "view",
      "type": "function"
    },
    {
      "inputs": [],
      "name": "renounceOwnership",
      "outputs": [],
      "stateMutability": "nonpayable",
      "type": "function"
    },
    {
      "inputs": [
        {
          "internalType": "uint256",
          "name": "_proposalId",
          "type": "uint256"
        }
      ],
      "name": "repay",
      "outputs": [],
      "stateMutability": "nonpayable",
      "type": "function"
    },
    {
      "inputs": [
        {
          "internalType": "address",
          "name": "_dao",
          "type": "address"
        }
      ],
      "name": "setDaoAddress",
      "outputs": [],
      "stateMutability": "nonpayable",
      "type": "function"
    },
    {
      "inputs": [],
      "name": "token",
      "outputs": [
        {
          "internalType": "contract VicToken",
          "name": "",
          "type": "address"
        }
      ],
      "stateMutability": "view",
      "type": "function"
    },
    {
      "inputs": [
        {
          "internalType": "address",
          "name": "newOwner",
          "type": "address"
        }
      ],
      "name": "transferOwnership",
      "outputs": [],
      "stateMutability": "nonpayable",
      "type": "function"
    },
    {
      "inputs": [
        {
          "internalType": "address",
          "name": "voter",
          "type": "address"
        },
        {
          "internalType": "uint256",
          "name": "_proposalId",
          "type": "uint256"
        },
        {
          "internalType": "bool",
          "name": "voteType",
          "type": "bool"
        }
      ],
      "name": "vote",
      "outputs": [],
      "stateMutability": "nonpayable",
      "type": "function"
    }
  ],
  "bytecode": "0x60806040523480156200001157600080fd5b50604051620021e9380380620021e98339818101604052810190620000379190620001d5565b620000576200004b6200009f60201b60201c565b620000a760201b60201c565b80600160006101000a81548173ffffffffffffffffffffffffffffffffffffffff021916908373ffffffffffffffffffffffffffffffffffffffff1602179055505062000207565b600033905090565b60008060009054906101000a900473ffffffffffffffffffffffffffffffffffffffff169050816000806101000a81548173ffffffffffffffffffffffffffffffffffffffff021916908373ffffffffffffffffffffffffffffffffffffffff1602179055508173ffffffffffffffffffffffffffffffffffffffff168173ffffffffffffffffffffffffffffffffffffffff167f8be0079c531659141344cd1fd0a4f28419497f9722a3daafe3b4186f6b6457e060405160405180910390a35050565b600080fd5b600073ffffffffffffffffffffffffffffffffffffffff82169050919050565b60006200019d8262000170565b9050919050565b620001af8162000190565b8114620001bb57600080fd5b50565b600081519050620001cf81620001a4565b92915050565b600060208284031215620001ee57620001ed6200016b565b5b6000620001fe84828501620001be565b91505092915050565b611fd280620002176000396000f3fe608060405234801561001057600080fd5b506004361061010b5760003560e01c80638da5cb5b116100a2578063bc378a7311610071578063bc378a731461029f578063c91ad658146102bd578063e1a02577146102d9578063f2fde38b146102f5578063fc0c546a146103115761010b565b80638da5cb5b1461022957806398fabd3a146102475780639a3cac6a146102655780639f958f57146102815761010b565b806342545825116100de57806342545825146101a157806343ab637e146101d1578063715018a6146101ef5780638634f038146101f95761010b565b8063013cf08b146101105780631ecbb9de14610149578063371fd8e6146101675780633eedfc1014610183575b600080fd5b61012a6004803603810190610125919061147e565b61032f565b6040516101409a99989796959493929190611572565b60405180910390f35b6101516103e0565b60405161015e919061160e565b60405180910390f35b610181600480360381019061017c919061147e565b6103e7565b005b61018b6106ee565b604051610198919061160e565b60405180910390f35b6101bb60048036038101906101b69190611655565b6106f5565b6040516101c891906116b0565b60405180910390f35b6101d9610724565b6040516101e6919061160e565b60405180910390f35b6101f7610729565b005b610213600480360381019061020e91906116cb565b61073d565b604051610220919061160e565b60405180910390f35b610231610b58565b60405161023e9190611746565b60405180910390f35b61024f610b81565b60405161025c9190611746565b60405180910390f35b61027f600480360381019061027a9190611761565b610ba7565b005b610289610bf3565b604051610296919061160e565b60405180910390f35b6102a7610bf8565b6040516102b4919061160e565b60405180910390f35b6102d760048036038101906102d2919061147e565b610c05565b005b6102f360048036038101906102ee91906117ba565b610c68565b005b61030f600480360381019061030a9190611761565b61117d565b005b610319611200565b604051610326919061186c565b60405180910390f35b6002818154811061033f57600080fd5b90600052602060002090600b02016000915090508060000160009054906101000a900473ffffffffffffffffffffffffffffffffffffffff16908060010160009054906101000a900473ffffffffffffffffffffffffffffffffffffffff169080600201549080600301549080600401549080600501549080600601549080600701549080600901549080600a0160009054906101000a900460ff1690508a565b62278d0081565b6000600282815481106103fd576103fc611887565b5b90600052602060002090600b02016009015490504281101561041e57600080fd5b60006002838154811061043457610433611887565b5b90600052602060002090600b020160030154905060006002848154811061045e5761045d611887565b5b90600052602060002090600b020160010160009054906101000a900473ffffffffffffffffffffffffffffffffffffffff16905081600160009054906101000a900473ffffffffffffffffffffffffffffffffffffffff1673ffffffffffffffffffffffffffffffffffffffff166370a08231336040518263ffffffff1660e01b81526004016104ee9190611746565b602060405180830381865afa15801561050b573d6000803e3d6000fd5b505050506040513d601f19601f8201168201806040525081019061052f91906118cb565b101561053a57600080fd5b600160009054906101000a900473ffffffffffffffffffffffffffffffffffffffff1673ffffffffffffffffffffffffffffffffffffffff1663a9059cbb30846040518363ffffffff1660e01b81526004016105979291906118f8565b6020604051808303816000875af11580156105b6573d6000803e3d6000fd5b505050506040513d601f19601f820116820180604052508101906105da9190611936565b5060008190506000600286815481106105f6576105f5611887565b5b90600052602060002090600b02016002015490508173ffffffffffffffffffffffffffffffffffffffff1663095ea7b330836040518363ffffffff1660e01b81526004016106459291906118f8565b600060405180830381600087803b15801561065f57600080fd5b505af1158015610673573d6000803e3d6000fd5b505050508173ffffffffffffffffffffffffffffffffffffffff166323b872dd3033846040518463ffffffff1660e01b81526004016106b493929190611963565b600060405180830381600087803b1580156106ce57600080fd5b505af11580156106e2573d6000803e3d6000fd5b50505050505050505050565b6203f48081565b60046020528160005260406000206020528060005260406000206000915091509054906101000a900460ff1681565b603381565b610731611226565b61073b60006112a4565b565b60006203f480861015610785576040517f08c379a000000000000000000000000000000000000000000000000000000000815260040161077c90611a1d565b60405180910390fd5b62278d008611156107cb576040517f08c379a00000000000000000000000000000000000000000000000000000000081526004016107c290611aaf565b60405180910390fd5b6000831161080e576040517f08c379a000000000000000000000000000000000000000000000000000000000815260040161080590611b41565b60405180910390fd5b42821015610851576040517f08c379a000000000000000000000000000000000000000000000000000000000815260040161084890611bd3565b60405180910390fd5b60008590508073ffffffffffffffffffffffffffffffffffffffff166323b872dd3330886040518463ffffffff1660e01b815260040161089393929190611963565b600060405180830381600087803b1580156108ad57600080fd5b505af11580156108c1573d6000803e3d6000fd5b505050506000600280549050905060006040518061016001604052803373ffffffffffffffffffffffffffffffffffffffff1681526020018973ffffffffffffffffffffffffffffffffffffffff1681526020018881526020018781526020014281526020018a426109339190611c22565b81526020016000815260200160008152602001600a67ffffffffffffffff81111561096157610960611c56565b5b60405190808252806020026020018201604052801561098f5781602001602082028036833780820191505090505b508152602001868152602001600060028111156109af576109ae6114fb565b5b815250905060028190806001815401808255809150506001900390600052602060002090600b020160009091909190915060008201518160000160006101000a81548173ffffffffffffffffffffffffffffffffffffffff021916908373ffffffffffffffffffffffffffffffffffffffff16021790555060208201518160010160006101000a81548173ffffffffffffffffffffffffffffffffffffffff021916908373ffffffffffffffffffffffffffffffffffffffff16021790555060408201518160020155606082015181600301556080820151816004015560a0820151816005015560c0820151816006015560e08201518160070155610100820151816008019080519060200190610ac792919061139c565b50610120820151816009015561014082015181600a0160006101000a81548160ff02191690836002811115610aff57610afe6114fb565b5b021790555050507f66e5b37817dfa9935ab8e631ce7774a2e773d56cc8ea6815ac65f1fbac642084823388428560a00151604051610b41959493929190611c85565b60405180910390a181935050505095945050505050565b60008060009054906101000a900473ffffffffffffffffffffffffffffffffffffffff16905090565b600360009054906101000a900473ffffffffffffffffffffffffffffffffffffffff1681565b610baf611226565b80600360006101000a81548173ffffffffffffffffffffffffffffffffffffffff021916908373ffffffffffffffffffffffffffffffffffffffff16021790555050565b601e81565b6000600280549050905090565b600460003373ffffffffffffffffffffffffffffffffffffffff1673ffffffffffffffffffffffffffffffffffffffff168152602001908152602001600020600082815260200190815260200160002060006101000a81549060ff021916905550565b600360009054906101000a900473ffffffffffffffffffffffffffffffffffffffff1673ffffffffffffffffffffffffffffffffffffffff163373ffffffffffffffffffffffffffffffffffffffff1614610cc257600080fd5b600060028381548110610cd857610cd7611887565b5b90600052602060002090600b0201905060006002811115610cfc57610cfb6114fb565b5b81600a0160009054906101000a900460ff166002811115610d2057610d1f6114fb565b5b14610d60576040517f08c379a0000000000000000000000000000000000000000000000000000000008152600401610d5790611d4a565b60405180910390fd5b600460008573ffffffffffffffffffffffffffffffffffffffff1673ffffffffffffffffffffffffffffffffffffffff168152602001908152602001600020600084815260200190815260200160002060009054906101000a900460ff1615610dfe576040517f08c379a0000000000000000000000000000000000000000000000000000000008152600401610df590611ddc565b60405180910390fd5b6001600460008673ffffffffffffffffffffffffffffffffffffffff1673ffffffffffffffffffffffffffffffffffffffff168152602001908152602001600020600085815260200190815260200160002060006101000a81548160ff0219169083151502179055506001151582151503610e94576001816006016000828254610e889190611c22565b92505081905550610ebe565b6000151582151503610ebd576001816007016000828254610eb59190611c22565b925050819055505b5b80600801849080600181540180825580915050600190039060005260206000200160009091909190916101000a81548173ffffffffffffffffffffffffffffffffffffffff021916908373ffffffffffffffffffffffffffffffffffffffff160217905550600081600701548260060154610f399190611c22565b9050600060028581548110610f5157610f50611887565b5b90600052602060002090600b020160000160009054906101000a900473ffffffffffffffffffffffffffffffffffffffff169050600060028681548110610f9b57610f9a611887565b5b90600052602060002090600b02016003015490506000610fd96103e8610fcb60038561136890919063ffffffff16565b61137e90919063ffffffff16565b9050846005015442101580610fee5750600a84145b156111735784600601548560070154101561110d57600185600a0160006101000a81548160ff0219169083600281111561102b5761102a6114fb565b5b0217905550600160009054906101000a900473ffffffffffffffffffffffffffffffffffffffff1673ffffffffffffffffffffffffffffffffffffffff1663a9059cbb84836040518363ffffffff1660e01b815260040161108d9291906118f8565b6020604051808303816000875af11580156110ac573d6000803e3d6000fd5b505050506040513d601f19601f820116820180604052508101906110d09190611936565b507f28ec9e38ba73636ceb2f6c1574136f83bd46284a3c74734b711bf45e12f8d92987604051611100919061160e565b60405180910390a1611172565b600285600a0160006101000a81548160ff02191690836002811115611135576111346114fb565b5b02179055507fd92fba445edb3153b571e6df782d7a66fd0ce668519273670820ee3a86da0ef487604051611169919061160e565b60405180910390a15b5b5050505050505050565b611185611226565b600073ffffffffffffffffffffffffffffffffffffffff168173ffffffffffffffffffffffffffffffffffffffff16036111f4576040517f08c379a00000000000000000000000000000000000000000000000000000000081526004016111eb90611e6e565b60405180910390fd5b6111fd816112a4565b50565b600160009054906101000a900473ffffffffffffffffffffffffffffffffffffffff1681565b61122e611394565b73ffffffffffffffffffffffffffffffffffffffff1661124c610b58565b73ffffffffffffffffffffffffffffffffffffffff16146112a2576040517f08c379a000000000000000000000000000000000000000000000000000000000815260040161129990611eda565b60405180910390fd5b565b60008060009054906101000a900473ffffffffffffffffffffffffffffffffffffffff169050816000806101000a81548173ffffffffffffffffffffffffffffffffffffffff021916908373ffffffffffffffffffffffffffffffffffffffff1602179055508173ffffffffffffffffffffffffffffffffffffffff168173ffffffffffffffffffffffffffffffffffffffff167f8be0079c531659141344cd1fd0a4f28419497f9722a3daafe3b4186f6b6457e060405160405180910390a35050565b600081836113769190611efa565b905092915050565b6000818361138c9190611f6b565b905092915050565b600033905090565b828054828255906000526020600020908101928215611415579160200282015b828111156114145782518260006101000a81548173ffffffffffffffffffffffffffffffffffffffff021916908373ffffffffffffffffffffffffffffffffffffffff160217905550916020019190600101906113bc565b5b5090506114229190611426565b5090565b5b8082111561143f576000816000905550600101611427565b5090565b600080fd5b6000819050919050565b61145b81611448565b811461146657600080fd5b50565b60008135905061147881611452565b92915050565b60006020828403121561149457611493611443565b5b60006114a284828501611469565b91505092915050565b600073ffffffffffffffffffffffffffffffffffffffff82169050919050565b60006114d6826114ab565b9050919050565b6114e6816114cb565b82525050565b6114f581611448565b82525050565b7f4e487b7100000000000000000000000000000000000000000000000000000000600052602160045260246000fd5b6003811061153b5761153a6114fb565b5b50565b600081905061154c8261152a565b919050565b600061155c8261153e565b9050919050565b61156c81611551565b82525050565b600061014082019050611588600083018d6114dd565b611595602083018c6114dd565b6115a2604083018b6114ec565b6115af606083018a6114ec565b6115bc60808301896114ec565b6115c960a08301886114ec565b6115d660c08301876114ec565b6115e360e08301866114ec565b6115f16101008301856114ec565b6115ff610120830184611563565b9b9a5050505050505050505050565b600060208201905061162360008301846114ec565b92915050565b611632816114cb565b811461163d57600080fd5b50565b60008135905061164f81611629565b92915050565b6000806040838503121561166c5761166b611443565b5b600061167a85828601611640565b925050602061168b85828601611469565b9150509250929050565b60008115159050919050565b6116aa81611695565b82525050565b60006020820190506116c560008301846116a1565b92915050565b600080600080600060a086880312156116e7576116e6611443565b5b60006116f588828901611469565b955050602061170688828901611640565b945050604061171788828901611469565b935050606061172888828901611469565b925050608061173988828901611469565b9150509295509295909350565b600060208201905061175b60008301846114dd565b92915050565b60006020828403121561177757611776611443565b5b600061178584828501611640565b91505092915050565b61179781611695565b81146117a257600080fd5b50565b6000813590506117b48161178e565b92915050565b6000806000606084860312156117d3576117d2611443565b5b60006117e186828701611640565b93505060206117f286828701611469565b9250506040611803868287016117a5565b9150509250925092565b6000819050919050565b600061183261182d611828846114ab565b61180d565b6114ab565b9050919050565b600061184482611817565b9050919050565b600061185682611839565b9050919050565b6118668161184b565b82525050565b6000602082019050611881600083018461185d565b92915050565b7f4e487b7100000000000000000000000000000000000000000000000000000000600052603260045260246000fd5b6000815190506118c581611452565b92915050565b6000602082840312156118e1576118e0611443565b5b60006118ef848285016118b6565b91505092915050565b600060408201905061190d60008301856114dd565b61191a60208301846114ec565b9392505050565b6000815190506119308161178e565b92915050565b60006020828403121561194c5761194b611443565b5b600061195a84828501611921565b91505092915050565b600060608201905061197860008301866114dd565b61198560208301856114dd565b61199260408301846114ec565b949350505050565b600082825260208201905092915050565b7f566f7465206475726174696f6e206973206c657373207468616e20746865206d60008201527f696e696d756d0000000000000000000000000000000000000000000000000000602082015250565b6000611a0760268361199a565b9150611a12826119ab565b604082019050919050565b60006020820190508181036000830152611a36816119fa565b9050919050565b7f566f7465206475726174696f6e206578636565647320746865206d6178696d7560008201527f6d00000000000000000000000000000000000000000000000000000000000000602082015250565b6000611a9960218361199a565b9150611aa482611a3d565b604082019050919050565b60006020820190508181036000830152611ac881611a8c565b9050919050565b7f5265717569726564207072696365206d7573742062652067726561746572207460008201527f68616e2030000000000000000000000000000000000000000000000000000000602082015250565b6000611b2b60258361199a565b9150611b3682611acf565b604082019050919050565b60006020820190508181036000830152611b5a81611b1e565b9050919050565b7f726570617954696d65206d75737420626967676572207468616e20626c6f636b60008201527f54696d6500000000000000000000000000000000000000000000000000000000602082015250565b6000611bbd60248361199a565b9150611bc882611b61565b604082019050919050565b60006020820190508181036000830152611bec81611bb0565b9050919050565b7f4e487b7100000000000000000000000000000000000000000000000000000000600052601160045260246000fd5b6000611c2d82611448565b9150611c3883611448565b9250828201905080821115611c5057611c4f611bf3565b5b92915050565b7f4e487b7100000000000000000000000000000000000000000000000000000000600052604160045260246000fd5b600060a082019050611c9a60008301886114ec565b611ca760208301876114dd565b611cb460408301866114ec565b611cc160608301856114ec565b611cce60808301846114ec565b9695505050505050565b7f5468652070726f706f73616c206973206e6f74206f70656e20666f7220766f7460008201527f696e670000000000000000000000000000000000000000000000000000000000602082015250565b6000611d3460238361199a565b9150611d3f82611cd8565b604082019050919050565b60006020820190508181036000830152611d6381611d27565b9050919050565b7f54686520766f7465722068616420766f74656420696e20746869732070726f7060008201527f6f73616c00000000000000000000000000000000000000000000000000000000602082015250565b6000611dc660248361199a565b9150611dd182611d6a565b604082019050919050565b60006020820190508181036000830152611df581611db9565b9050919050565b7f4f776e61626c653a206e6577206f776e657220697320746865207a65726f206160008201527f6464726573730000000000000000000000000000000000000000000000000000602082015250565b6000611e5860268361199a565b9150611e6382611dfc565b604082019050919050565b60006020820190508181036000830152611e8781611e4b565b9050919050565b7f4f776e61626c653a2063616c6c6572206973206e6f7420746865206f776e6572600082015250565b6000611ec460208361199a565b9150611ecf82611e8e565b602082019050919050565b60006020820190508181036000830152611ef381611eb7565b9050919050565b6000611f0582611448565b9150611f1083611448565b9250828202611f1e81611448565b91508282048414831517611f3557611f34611bf3565b5b5092915050565b7f4e487b7100000000000000000000000000000000000000000000000000000000600052601260045260246000fd5b6000611f7682611448565b9150611f8183611448565b925082611f9157611f90611f3c565b5b82820490509291505056fea26469706673582212207ded4934b97bf9cb0125a075eafae0840a748df79a65d54d30002b27cd4d1a4064736f6c63430008120033",
  "linkReferences": {},
  "deployedLinkReferences": {}
}