{
  "_format": "hh-sol-artifact-1",
  "contractName": "VicDAO",
  "sourceName": "contracts/VicDao.sol",
  "abi": [
    {
      "inputs": [
        {
          "internalType": "address",
          "name": "_token",
          "type": "address"
        },
        {
          "internalType": "address",
          "name": "_proposal",
          "type": "address"
        }
      ],
      "stateMutability": "nonpayable",
      "type": "constructor"
    },
    {
      "anonymous": false,
      "inputs": [
        {
          "indexed": false,
          "internalType": "address",
          "name": "member",
          "type": "address"
        }
      ],
      "name": "MemberApproved",
      "type": "event"
    },
    {
      "anonymous": false,
      "inputs": [
        {
          "indexed": false,
          "internalType": "address",
          "name": "member",
          "type": "address"
        },
        {
          "indexed": false,
          "internalType": "uint256",
          "name": "amount",
          "type": "uint256"
        },
        {
          "indexed": false,
          "internalType": "uint256",
          "name": "unlockTime",
          "type": "uint256"
        }
      ],
      "name": "MemberPledged",
      "type": "event"
    },
    {
      "anonymous": false,
      "inputs": [
        {
          "indexed": false,
          "internalType": "address",
          "name": "member",
          "type": "address"
        }
      ],
      "name": "MemberRemoved",
      "type": "event"
    },
    {
      "anonymous": false,
      "inputs": [
        {
          "indexed": false,
          "internalType": "address",
          "name": "member",
          "type": "address"
        },
        {
          "indexed": false,
          "internalType": "uint256",
          "name": "amount",
          "type": "uint256"
        }
      ],
      "name": "MemberUnlocked",
      "type": "event"
    },
    {
      "inputs": [],
      "name": "BURN_RATE",
      "outputs": [
        {
          "internalType": "uint256",
          "name": "",
          "type": "uint256"
        }
      ],
      "stateMutability": "view",
      "type": "function"
    },
    {
      "inputs": [],
      "name": "MAX_VOTE_DIVIDEND",
      "outputs": [
        {
          "internalType": "uint256",
          "name": "",
          "type": "uint256"
        }
      ],
      "stateMutability": "view",
      "type": "function"
    },
    {
      "inputs": [],
      "name": "MIN_QUALIFICATION_LIMIT",
      "outputs": [
        {
          "internalType": "uint256",
          "name": "",
          "type": "uint256"
        }
      ],
      "stateMutability": "view",
      "type": "function"
    },
    {
      "inputs": [
        {
          "internalType": "address",
          "name": "_member",
          "type": "address"
        }
      ],
      "name": "burnForMember",
      "outputs": [],
      "stateMutability": "nonpayable",
      "type": "function"
    },
    {
      "inputs": [
        {
          "internalType": "uint256",
          "name": "_proposalId",
          "type": "uint256"
        },
        {
          "internalType": "bool",
          "name": "_voteType",
          "type": "bool"
        }
      ],
      "name": "daoMemberVote",
      "outputs": [],
      "stateMutability": "nonpayable",
      "type": "function"
    },
    {
      "inputs": [
        {
          "internalType": "address",
          "name": "_member",
          "type": "address"
        }
      ],
      "name": "memberBalanceOf",
      "outputs": [
        {
          "internalType": "uint256",
          "name": "",
          "type": "uint256"
        }
      ],
      "stateMutability": "view",
      "type": "function"
    },
    {
      "inputs": [
        {
          "internalType": "address",
          "name": "",
          "type": "address"
        }
      ],
      "name": "members",
      "outputs": [
        {
          "internalType": "uint8",
          "name": "status",
          "type": "uint8"
        },
        {
          "internalType": "uint256",
          "name": "pledgeAmount",
          "type": "uint256"
        },
        {
          "internalType": "uint256",
          "name": "pledgeStartTime",
          "type": "uint256"
        },
        {
          "internalType": "uint256",
          "name": "pledgeUnlockTime",
          "type": "uint256"
        }
      ],
      "stateMutability": "view",
      "type": "function"
    },
    {
      "inputs": [
        {
          "internalType": "uint256",
          "name": "_amount",
          "type": "uint256"
        },
        {
          "internalType": "uint256",
          "name": "_unlockTime",
          "type": "uint256"
        }
      ],
      "name": "pledge",
      "outputs": [],
      "stateMutability": "nonpayable",
      "type": "function"
    },
    {
      "inputs": [],
      "name": "proposal",
      "outputs": [
        {
          "internalType": "contract VicProposal",
          "name": "",
          "type": "address"
        }
      ],
      "stateMutability": "view",
      "type": "function"
    },
    {
      "inputs": [
        {
          "internalType": "address",
          "name": "",
          "type": "address"
        },
        {
          "internalType": "uint256",
          "name": "",
          "type": "uint256"
        }
      ],
      "name": "receiptTable",
      "outputs": [
        {
          "internalType": "uint256",
          "name": "startTime",
          "type": "uint256"
        },
        {
          "internalType": "uint256",
          "name": "unlockTime",
          "type": "uint256"
        },
        {
          "internalType": "uint256",
          "name": "amount",
          "type": "uint256"
        },
        {
          "internalType": "bool",
          "name": "processed",
          "type": "bool"
        }
      ],
      "stateMutability": "view",
      "type": "function"
    },
    {
      "inputs": [],
      "name": "token",
      "outputs": [
        {
          "internalType": "contract VicToken",
          "name": "",
          "type": "address"
        }
      ],
      "stateMutability": "view",
      "type": "function"
    },
    {
      "inputs": [
        {
          "internalType": "uint256",
          "name": "_index",
          "type": "uint256"
        }
      ],
      "name": "unlock",
      "outputs": [],
      "stateMutability": "nonpayable",
      "type": "function"
    },
    {
      "inputs": [
        {
          "internalType": "address",
          "name": "",
          "type": "address"
        }
      ],
      "name": "vevicBalance",
      "outputs": [
        {
          "internalType": "uint256",
          "name": "",
          "type": "uint256"
        }
      ],
      "stateMutability": "view",
      "type": "function"
    },
    {
      "inputs": [
        {
          "internalType": "address",
          "name": "",
          "type": "address"
        }
      ],
      "name": "vevicUpdateTime",
      "outputs": [
        {
          "internalType": "uint256",
          "name": "",
          "type": "uint256"
        }
      ],
      "stateMutability": "view",
      "type": "function"
    }
  ],
  "bytecode": "0x60806040523480156200001157600080fd5b506040516200199d3803806200199d83398181016040528101906200003791906200012a565b816000806101000a81548173ffffffffffffffffffffffffffffffffffffffff021916908373ffffffffffffffffffffffffffffffffffffffff16021790555080600160006101000a81548173ffffffffffffffffffffffffffffffffffffffff021916908373ffffffffffffffffffffffffffffffffffffffff160217905550505062000171565b600080fd5b600073ffffffffffffffffffffffffffffffffffffffff82169050919050565b6000620000f282620000c5565b9050919050565b6200010481620000e5565b81146200011057600080fd5b50565b6000815190506200012481620000f9565b92915050565b60008060408385031215620001445762000143620000c0565b5b6000620001548582860162000113565b9250506020620001678582860162000113565b9150509250929050565b61181c80620001816000396000f3fe608060405234801561001057600080fd5b50600436106100e95760003560e01c80635e5f13081161008c578063f846a88511610066578063f846a88514610276578063f97521fe14610294578063fc0c546a146102b0578063fde327be146102ce576100e9565b80635e5f13081461020c5780636198e3391461023c578063753ec10314610258576100e9565b80634a280e47116100c85780634a280e47146101725780634ec7c2331461019057806351a88b92146101c057806355c0a612146101dc576100e9565b8062b3a588146100ee57806308ae4b0c14610121578063388b739514610154575b600080fd5b61010860048036038101906101039190610e9e565b6102ea565b6040516101189493929190610f08565b60405180910390f35b61013b60048036038101906101369190610f4d565b610344565b60405161014b9493929190610f96565b60405180910390f35b61015c610381565b6040516101699190610fdb565b60405180910390f35b61017a610387565b6040516101879190610fdb565b60405180910390f35b6101aa60048036038101906101a59190610f4d565b61038c565b6040516101b79190610fdb565b60405180910390f35b6101da60048036038101906101d59190611022565b6104c8565b005b6101f660048036038101906101f19190610f4d565b6105e5565b6040516102039190610fdb565b60405180910390f35b61022660048036038101906102219190610f4d565b6105fd565b6040516102339190610fdb565b60405180910390f35b61025660048036038101906102519190611062565b610615565b005b61026061083e565b60405161026d91906110ee565b60405180910390f35b61027e610864565b60405161028b9190610fdb565b60405180910390f35b6102ae60048036038101906102a99190610f4d565b610869565b005b6102b8610950565b6040516102c5919061112a565b60405180910390f35b6102e860048036038101906102e39190611145565b610974565b005b6005602052816000526040600020818154811061030657600080fd5b9060005260206000209060040201600091509150508060000154908060010154908060020154908060030160009054906101000a900460ff16905084565b60026020528060005260406000206000915090508060000160009054906101000a900460ff16908060010154908060020154908060030154905084565b614e2081565b601981565b600080600260008473ffffffffffffffffffffffffffffffffffffffff1673ffffffffffffffffffffffffffffffffffffffff1681526020019081526020016000206040518060800160405290816000820160009054906101000a900460ff1660ff1660ff16815260200160018201548152602001600282015481526020016003820154815250509050600081602001510361042c5760009150506104c3565b600061049060646104826301e133806104746003610466886020015189604001514261045891906111b4565b610dd990919063ffffffff16565b610dd990919063ffffffff16565b610def90919063ffffffff16565b610def90919063ffffffff16565b9050808260200151116104a8576000925050506104c3565b60008183602001516104ba91906111b4565b90508093505050505b919050565b6000600260003373ffffffffffffffffffffffffffffffffffffffff1673ffffffffffffffffffffffffffffffffffffffff16815260200190815260200160002060000160009054906101000a900460ff16905060018160ff161480610531575060028160ff16145b61053a57600080fd5b60006105453361038c565b1161054f57600080fd5b600160009054906101000a900473ffffffffffffffffffffffffffffffffffffffff1673ffffffffffffffffffffffffffffffffffffffff1663e1a025773385856040518463ffffffff1660e01b81526004016105ae939291906111f7565b600060405180830381600087803b1580156105c857600080fd5b505af11580156105dc573d6000803e3d6000fd5b50505050505050565b60046020528060005260406000206000915090505481565b60036020528060005260406000206000915090505481565b6000600560003373ffffffffffffffffffffffffffffffffffffffff1673ffffffffffffffffffffffffffffffffffffffff16815260200190815260200160002082815481106106685761066761122e565b5b906000526020600020906004020190508060030160009054906101000a900460ff16801561069a575080600101544210155b6106d9576040517f08c379a00000000000000000000000000000000000000000000000000000000081526004016106d0906112e0565b60405180910390fd5b6106e23361038c565b5060008160030160006101000a81548160ff0219169083151502179055508060020154600360003373ffffffffffffffffffffffffffffffffffffffff1673ffffffffffffffffffffffffffffffffffffffff168152602001908152602001600020600082825461075391906111b4565b9250508190555060008054906101000a900473ffffffffffffffffffffffffffffffffffffffff1673ffffffffffffffffffffffffffffffffffffffff1663a9059cbb3383600201546040518363ffffffff1660e01b81526004016107b9929190611300565b6020604051808303816000875af11580156107d8573d6000803e3d6000fd5b505050506040513d601f19601f820116820180604052508101906107fc919061133e565b507f5357eee446baaaf2b38d1298855bff5a62fe032cc3df0e6100eb52c2a616aa5e338260020154604051610832929190611300565b60405180910390a15050565b600160009054906101000a900473ffffffffffffffffffffffffffffffffffffffff1681565b600381565b60006108748261038c565b9050600081146108b9576040517f08c379a00000000000000000000000000000000000000000000000000000000081526004016108b0906113dd565b60405180910390fd5b6000600260008473ffffffffffffffffffffffffffffffffffffffff1673ffffffffffffffffffffffffffffffffffffffff16815260200190815260200160002060000160006101000a81548160ff021916908360ff1602179055507f6e76fb4c77256006d9c38ec7d82b45a8c8f3c27b1d6766fffc42dfb8de6844928260405161094491906113fd565b60405180910390a15050565b60008054906101000a900473ffffffffffffffffffffffffffffffffffffffff1681565b600082116109b7576040517f08c379a00000000000000000000000000000000000000000000000000000000081526004016109ae90611464565b60405180910390fd5b8160008054906101000a900473ffffffffffffffffffffffffffffffffffffffff1673ffffffffffffffffffffffffffffffffffffffff166370a08231336040518263ffffffff1660e01b8152600401610a1191906113fd565b602060405180830381865afa158015610a2e573d6000803e3d6000fd5b505050506040513d601f19601f82011682018060405250810190610a529190611499565b1015610a93576040517f08c379a0000000000000000000000000000000000000000000000000000000008152600401610a8a90611538565b60405180910390fd5b42811015610ad6576040517f08c379a0000000000000000000000000000000000000000000000000000000008152600401610acd906115f0565b60405180910390fd5b630784ce0042610ae69190611610565b811115610b28576040517f08c379a0000000000000000000000000000000000000000000000000000000008152600401610b1f906116b6565b60405180910390fd5b6000600260003373ffffffffffffffffffffffffffffffffffffffff1673ffffffffffffffffffffffffffffffffffffffff168152602001908152602001600020905060008160000160009054906101000a900460ff1660ff1603610bdd5760018160000160006101000a81548160ff021916908360ff1602179055507f3da74045128fff0396b39203f81bcedcbcf28586f0f97fb0f41ceb5521566a1533604051610bd491906113fd565b60405180910390a15b60004283610beb91906111b4565b84610bf691906116d6565b905080826001016000828254610c0c9190611610565b9250508190555042826002018190555082826003018190555060008054906101000a900473ffffffffffffffffffffffffffffffffffffffff1673ffffffffffffffffffffffffffffffffffffffff166323b872dd3330876040518463ffffffff1660e01b8152600401610c8293929190611718565b6020604051808303816000875af1158015610ca1573d6000803e3d6000fd5b505050506040513d601f19601f82011682018060405250810190610cc5919061133e565b507f2c6ef06fee629f380a07764773e38f1cb47ac5366c7d2444780454a3ce64e570338585604051610cf99392919061174f565b60405180910390a160006040518060800160405280428152602001858152602001868152602001600115158152509050600560003373ffffffffffffffffffffffffffffffffffffffff1673ffffffffffffffffffffffffffffffffffffffff16815260200190815260200160002081908060018154018082558091505060019003906000526020600020906004020160009091909190915060008201518160000155602082015181600101556040820151816002015560608201518160030160006101000a81548160ff02191690831515021790555050505050505050565b60008183610de791906116d6565b905092915050565b60008183610dfd91906117b5565b905092915050565b600080fd5b600073ffffffffffffffffffffffffffffffffffffffff82169050919050565b6000610e3582610e0a565b9050919050565b610e4581610e2a565b8114610e5057600080fd5b50565b600081359050610e6281610e3c565b92915050565b6000819050919050565b610e7b81610e68565b8114610e8657600080fd5b50565b600081359050610e9881610e72565b92915050565b60008060408385031215610eb557610eb4610e05565b5b6000610ec385828601610e53565b9250506020610ed485828601610e89565b9150509250929050565b610ee781610e68565b82525050565b60008115159050919050565b610f0281610eed565b82525050565b6000608082019050610f1d6000830187610ede565b610f2a6020830186610ede565b610f376040830185610ede565b610f446060830184610ef9565b95945050505050565b600060208284031215610f6357610f62610e05565b5b6000610f7184828501610e53565b91505092915050565b600060ff82169050919050565b610f9081610f7a565b82525050565b6000608082019050610fab6000830187610f87565b610fb86020830186610ede565b610fc56040830185610ede565b610fd26060830184610ede565b95945050505050565b6000602082019050610ff06000830184610ede565b92915050565b610fff81610eed565b811461100a57600080fd5b50565b60008135905061101c81610ff6565b92915050565b6000806040838503121561103957611038610e05565b5b600061104785828601610e89565b92505060206110588582860161100d565b9150509250929050565b60006020828403121561107857611077610e05565b5b600061108684828501610e89565b91505092915050565b6000819050919050565b60006110b46110af6110aa84610e0a565b61108f565b610e0a565b9050919050565b60006110c682611099565b9050919050565b60006110d8826110bb565b9050919050565b6110e8816110cd565b82525050565b600060208201905061110360008301846110df565b92915050565b6000611114826110bb565b9050919050565b61112481611109565b82525050565b600060208201905061113f600083018461111b565b92915050565b6000806040838503121561115c5761115b610e05565b5b600061116a85828601610e89565b925050602061117b85828601610e89565b9150509250929050565b7f4e487b7100000000000000000000000000000000000000000000000000000000600052601160045260246000fd5b60006111bf82610e68565b91506111ca83610e68565b92508282039050818111156111e2576111e1611185565b5b92915050565b6111f181610e2a565b82525050565b600060608201905061120c60008301866111e8565b6112196020830185610ede565b6112266040830184610ef9565b949350505050565b7f4e487b7100000000000000000000000000000000000000000000000000000000600052603260045260246000fd5b600082825260208201905092915050565b7f54686520726563656970742063616e277420626520756e6c6f636b656420796560008201527f7400000000000000000000000000000000000000000000000000000000000000602082015250565b60006112ca60218361125d565b91506112d58261126e565b604082019050919050565b600060208201905081810360008301526112f9816112bd565b9050919050565b600060408201905061131560008301856111e8565b6113226020830184610ede565b9392505050565b60008151905061133881610ff6565b92915050565b60006020828403121561135457611353610e05565b5b600061136284828501611329565b91505092915050565b7f546865206d656d626572207374696c6c2068617320706c656467656420746f6b60008201527f656e730000000000000000000000000000000000000000000000000000000000602082015250565b60006113c760238361125d565b91506113d28261136b565b604082019050919050565b600060208201905081810360008301526113f6816113ba565b9050919050565b600060208201905061141260008301846111e8565b92915050565b7f416d6f756e74206d7573742062652067726561746572207468616e2030000000600082015250565b600061144e601d8361125d565b915061145982611418565b602082019050919050565b6000602082019050818103600083015261147d81611441565b9050919050565b60008151905061149381610e72565b92915050565b6000602082840312156114af576114ae610e05565b5b60006114bd84828501611484565b91505092915050565b7f546865207573657220646f65736e2774206861766520656e6f75676820746f6b60008201527f656e730000000000000000000000000000000000000000000000000000000000602082015250565b600061152260238361125d565b915061152d826114c6565b604082019050919050565b6000602082019050818103600083015261155181611515565b9050919050565b7f54686520756e6c6f636b2074696d65206d75737420626520677265617465722060008201527f7468616e206f7220657175616c20746f207468652063757272656e742074696d60208201527f6500000000000000000000000000000000000000000000000000000000000000604082015250565b60006115da60418361125d565b91506115e582611558565b606082019050919050565b60006020820190508181036000830152611609816115cd565b9050919050565b600061161b82610e68565b915061162683610e68565b925082820190508082111561163e5761163d611185565b5b92915050565b7f54686520756e6c6f636b2074696d652063616e2774206265206d6f726520746860008201527f616e203420796561727320696e20746865206675747572650000000000000000602082015250565b60006116a060388361125d565b91506116ab82611644565b604082019050919050565b600060208201905081810360008301526116cf81611693565b9050919050565b60006116e182610e68565b91506116ec83610e68565b92508282026116fa81610e68565b9150828204841483151761171157611710611185565b5b5092915050565b600060608201905061172d60008301866111e8565b61173a60208301856111e8565b6117476040830184610ede565b949350505050565b600060608201905061176460008301866111e8565b6117716020830185610ede565b61177e6040830184610ede565b949350505050565b7f4e487b7100000000000000000000000000000000000000000000000000000000600052601260045260246000fd5b60006117c082610e68565b91506117cb83610e68565b9250826117db576117da611786565b5b82820490509291505056fea2646970667358221220ec08892b38452660d4a18caee8d93d7540b13d01baeed81d0584acf3681dbf2c64736f6c63430008120033",
  "linkReferences": {},
  "deployedLinkReferences": {}
}